:020000040800F2
:10000000A008002089010008910100089301000860
:100010009501000897010008990100080000000000
:100020000000000000000000000000009B0100082C
:100030009D010008000000009F0100080D0300085A
:10004000A3010008A3010008A3010008A301000800
:10005000A3010008A3010008A3010008A3010008F0
:10006000A3010008A3010008A3010008A3010008E0
:10007000A3010008A3010008A3010008A3010008D0
:10008000A3010008A3010008A3010008A3010008C0
:10009000A3010008A3010008A3010008A3010008B0
:1000A000A3010008A3010008A3010008A3010008A0
:1000B000A3010008A3010008A3010008A301000890
:1000C000A3010008A3010008A3010008A301000880
:1000D000A3010008A3010008D9050008F5050008E0
:1000E000A3010008A3010008A301000800F002F822
:1000F00000F03AF80AA090E8000C82448344AAF188
:100100000107DA4501D100F02FF8AFF2090EBAE885
:100110000F0013F0010F18BFFB1A43F0010318473B
:10012000EC1300000C140000103A24BF78C878C10A
:10013000FAD8520724BF30C830C144BF04680C60ED
:10014000704700000023002400250026103A28BF35
:1001500078C1FBD8520728BF30C148BF0B60704739
:100160001FB51FBD10B510BD00F031F81146FFF7E7
:10017000F7FF00F07BFB00F04FF803B4FFF7F2FF4E
:1001800003BC00F057F800000948804709480047C1
:10019000FEE7FEE7FEE7FEE7FEE7FEE7FEE7FEE737
:1001A000FEE7FEE704480549054A064B7047000094
:1001B0002D030008ED000008A0020020A008002088
:1001C000A0040020A00400207047704770477546C7
:1001D00000F02CF8AE4605006946534620F00700B3
:1001E000854618B020B5FFF7DDFFBDE820404FF091
:1001F00000064FF000074FF000084FF0000BAC4630
:10020000ACE8C009ACE8C009ACE8C009ACE8C0097A
:1002100021F007018D46704710B50446AFF300800A
:100220002046BDE81040FFF7A8BF00000048704717
:100230002000002001491820ABBEFEE72600020086
:100240007047000080B500F001F880BD82B041F237
:1002500004000021C4F202000191009150F8041C36
:1002600041F4803140F8041C50F8041C01F40031C2
:100270000091019901310191009919B90199B1F5E4
:10028000A06FF1D150F8041C890354BF0021012153
:1002900000910099012936D142F20001C4F2020115
:1002A0000A6842F010020A600A6822F003020A603B
:1002B0000A6842F002020A60016801600168016098
:1002C000016841F480610160016821F47C110160E2
:1002D000016841F4E811016050F8041C41F080719C
:1002E00040F8041C50F8041C8901FBD5016821F07A
:1002F00003010160016841F002010160016801F041
:100300000C010829FAD102B07047000080B540F214
:10031000862040F2000140F20E02C2F20000C2F25A
:100320000001C2F2000200F09FFB80BD80B541F2E7
:100330000000C4F202000168002241F001010160E6
:100340004168CFF6FF021140416001684FF6FF722D
:10035000CFF6F66211400160016821F4802101604E
:10036000416821F4FE0141604FF41F018160FFF7F5
:1003700069FF4EF60850CEF200004FF000610160B8
:1003800080BD000070B541F218060546C4F20206B1
:1003900000F03EF93168044641F00100032D306061
:1003A00032D0022D62D0012D18BF70BDEFF3108046
:1003B00072B63068092140F4804030600120032289
:1003C000022300F0E1F901200A210022022300F0BB
:1003D000DBF943F60C00C4F2010020F8044C01885C
:1003E00041F008010180018841F004010180018889
:1003F00041F400510180018841F020010180252055
:1004000000F060F962B670BDEFF3108072B67068EC
:100410000A2140F48020706002200322022300F0B1
:10042000B3F902200B210022022300F0ADF944F2BF
:100430000C40C4F20000A0F8FC4344F60C00C4F2E7
:100440000000018841F008010180018841F00401A9
:100450000180018841F400510180018841F02001B0
:100460000180272000F02EF962B670BDEFF31080F6
:1004700072B67068022140F40030706001200322DF
:10048000022300F081F9012003210022022300F061
:100490007BF944F20C40C4F2000020F8044C0188BF
:1004A00041F008010180018841F0040101800188C8
:1004B00041F400510180018841F020010180262093
:1004C00000F000F962B670BD70B58E8815460C4616
:1004D00000F01CF801461EB1304600F055F870BD22
:1004E00020882954E188208849B1295C22898A42E0
:1004F00007BF4FF4803020600130208070BD6189DB
:1005000001302080A18100F0D9FA70BD012814D0FB
:1005100002281BD003281EBF0020C0B2704744F23F
:10052000004144F60400C4F20001C4F2000000BF20
:10053000B1F800249206FBD510E043F60000C4F2A7
:10054000010000BF01888906FCD506E044F20040A6
:10055000C4F2000001888906FCD504300088C0B2CE
:1005600070470000B0B50A78002A08BFB0BD044645
:100570004D1E00BFD1B2204600F006F8AA78013522
:10058000002AF7D1B0BD0000012813D0022819D0ED
:10059000032818BF704744F2004244F60400C4F236
:1005A0000002C4F2000000BFB2F800345B06FBD5C5
:1005B0000180704743F60000C4F201000288520631
:1005C000FCD506E044F20040C4F200000288520666
:1005D000FCD504300180704780B540F2000140F244
:1005E0008002C2F20001C2F200020220FFF76CFF9B
:1005F00080BD000080B540F20E0140F27A12C2F2D6
:100600000001C2F200020320FFF75EFF80BD000080
:10061000F0B581B042F6882545F20012C4F281158A
:100620000128C0F225224FEA011004BF4AF200223D
:10063000C0F24A42B2FBF0F404BF42F68825C4F28D
:10064000911500F0C6FC02460B460020294600F03A
:10065000FFFA054620460E4600F0BBFC02460B465C
:100660002846314600F03EFE0023C4F2300300224B
:1006700000F03AFD06460F4600F07EFC054600F00D
:10068000A8FC02460B463046394600F02BFE0023FC
:10069000C4F25903002200F027FD0023C4F24903ED
:1006A000002200F025FF38B9681CB0F1100518BF12
:1006B0000546102808BF013405EB041080B201B0D4
:1006C000F0BD0000002848BF704700F01F01012264
:1006D00002FA01F14EF200124009CEF2000242F895
:1006E000201070472DE9F04381B0804600F09CF95E
:1006F000451C0FF250090DF1030644462F4600BF7A
:10070000207849468DF80300304600F043F9A0B147
:10071000013F04F10104F3D1A8F10101002000BF61
:1007200011F8012F00EB800002EB4000013DA0F129
:100730003000F5D101B0BDE8F083002001B0BDE884
:10074000F08300BF3031323334353637383900006A
:1007500010B5002808BF10BD044600BF00F004F823
:10076000013CFBD110BD00004EF2100041F64011DB
:10077000CEF20000C0F2010141600021816000BFA3
:100780000168C903FCD57047B0B540F6000C0729D5
:100790004FF0000EC4F2010C84BF4FF0010E083977
:1007A00001284FF0000407D0032807D0022811D1F8
:1007B0000CF5806C082004E0042002E00CF5006CCD
:1007C000102041F21804C4F2020425682843206076
:1007D0000CEB8E044FF6FC70C0F2030000EA8100BF
:1007E0000F212568814025EA0101216002FA00F10C
:1007F000023003FA00F02268084310432060B0BDC5
:10080000B0B583B000220A2817DB46F2676CC6F247
:10081000666CEE46034600BF83FB0C04A01000EBA1
:10082000D47000EB8004A3EB4404303415B20132E1
:10083000632B03460EF80540EEDC0FFA82FC3030E5
:100840006A46BCF1000F02F80C0008D44B1E60464B
:10085000155C002803F8015FA0F10100F8DC0CEB47
:1008600001000021417003B0B0BD000000F0E8F8C5
:1008700002204FF41651FFF785FD03204FF4165167
:10088000FFF780FD6420FFF763FF2CA10220FFF734
:1008900069FE2EA10320FFF765FE40F27821C2F227
:1008A000000140F62520FFF7ABFF2CA0FFF71AFF51
:1008B00040F2982140F2000540F2800640F2742B8D
:1008C00040F2942840F20E0A40F27A14C2F200017B
:1008D000C2F20005C2F20006C2F2000B25A7C2F266
:1008E00000084FF00009C2F2000AC2F200040860DA
:1008F0006888012818D11BA01CA100F07FF840F2E5
:100900008421C2F200010870304600F08DF8CBF867
:1009100000003846314600F03DF888F800003046C7
:10092000A5F8029000F02AF8BAF802000128DFD1F9
:100930002046AAF8029000F021F8D9E7746869739C
:1009400020697320756172742032000074686973C5
:100950002069732075617274203300003235393795
:100960000000000057656577000000005765657757
:100970006B000000686568650000000001780029D0
:1009800008BF70470138002100F8011F4278002A93
:10099000FAD1704770B582B00646002001903378D6
:1009A00082B28D5C0446AB4203D0002D04F10100FD
:1009B000F6D1FDB130784FF6FF7568B18A5C904290
:1009C0000AD100221546013290B2305C20B10134C8
:1009D000A3B2CB5C9842F5D0304600F025F80190E8
:1009E000304600F021F8A9B2081AB0FA80F04009A8
:1009F00002B070BD002002B070BD000070B50C46A2
:100A0000054600F011F80646204600F00DF8864233
:100A100007D128462146FFF7BDFF00281CBF012053
:100A200070BD002070BD0000002200BF114692B2D0
:100A3000825C002A01F10102F8D1481E80B27047A1
:100A4000EFF3108072B64EF21000CEF200000021DB
:100A50006FF07F42016042608160016841F00501F2
:100A6000016062B67047000080B5038823B18189B8
:100A700049B10139818180BD088850B1888988B128
:100A80000138888180BD4FF480310160FFF7D8FFC5
:100A900080BD1088002808BF80BD908940B1013812
:100AA000908180BD4FF480300860FFF7C9FF80BDA2
:100AB0004FF480301060FFF7C3FF80BDEFF310806C
:100AC00072B64EF210004FF68042CEF200000021C6
:100AD000C0F20A02016042608160016841F00701D2
:100AE000016062B67047000010B591EA030F48BF7D
:100AF00083F0004300F1FE83841A71EB030C05D2EE
:100B0000121943EB0C03001B61EB0C014FEA11546B
:100B1000A4EB135CDFF81CE11EEA430F18BF9EEA4A
:100B2000445F73D021EA045123EA0E0343F4801397
:100B3000DCF1200E32D322FA0CFE10EB0E0023FA69
:100B40000CFE41EB0E01CCF1200E03FA0EFE10EB71
:100B50000E00CCF1200E51F10001B1F5801F32D210
:100B600001EB045112FA0EF2BDE8104058BF704775
:100B7000401C38BF5FEA420218BF7047002814BF0C
:100B800020F0010041F100014FEA410313F5001F7D
:100B900038BF7047A1F1C04100F09EBB012A43EB72
:100BA0000302ACF1200CDCF11F0E32BF4FF0000E3F
:100BB00023FA0CF310EB030041EB0451B4EB115F8B
:100BC000D0D0A1EB045101F58011490801EB04518B
:100BD0005FEA30000ED350F1000038BF12FA0EFE6B
:100BE00008D1BDE81040C9E7401C38BF5FEA4202A7
:100BF000CAD1C3E7BDE810404FEA410313F5001F17
:100C000038BF7047A1F1C04100F066BB9EEA445F67
:100C100008D011EA5E0FBDE8104004BF01F00041AA
:100C200000207047BDE8104070B500F007FB00BF22
:100C300064FBBE3E0000E0FF491058BFC1F14041D7
:100C40005B1058BFC3F140438B42EFF30080704705
:100C50002DE9C04130B4DFF8A0C23CEA111418BF3E
:100C60003CEA131400F0EC801CEA111481EA03053D
:100C700044EAD57418BF1CEA131500F0C780A4EB32
:100C8000050404F17F7404F500344FF0004545EA93
:100C9000C12145EAC32341EA505143EA52534FEA86
:100CA000C0204FEAC222994208BF904200F09C80C7
:100CB0004FEA13650FF24016765D4FEA134506FBC7
:100CC00005F7C7F1807706FB07F74FEAD737A7FB91
:100CD00003687642A7FB06CEC8F5803838BFA8F176
:100CE000010807FB08E6A6FB028C4FF0000EE6FBAE
:100CF00003CEDCF1000CCEF1004E38BFAEF1010E98
:100D0000A6FB0C584FF00007E6FB0E87A1FB08C6B8
:100D1000A0FB07CE16EB0E064FF0000545F10005CF
:100D2000E1FB076515F1E04E7EBFA4F580345FEA74
:100D300046066D4116F1800745F100054FEA172779
:100D400047EA05674FEA15254FEA0666A6F1DE4633
:100D5000B6F1805F1FD9384605EBC47124F0010C51
:100D600001EB0C11BCF1FE6F02D8F0BCBDE80081B4
:100D700024425CBF01F5801E9EEAC47F02D4F0BC11
:100D8000BDE80081244238D4A1F1C041F0BCBDE8E7
:100D9000004100F0A1BA4FEAD02040EA41504FEAAA
:100DA000D1214FEAD22242EA43524FEAD323A7FB92
:100DB000028607FB036605FB02661EEA0E0F58BF9C
:100DC000A6EB0056B6EB00564FEA520E4EEAC37E33
:100DD00018EB0E0E56EB530EBDD518EB02085E4114
:100DE0007F1C55F10005B6E74FF480154FF0000762
:100DF0004FF000064FF00008ADE701F1C04101F0EF
:100E000000414FF00000F0BCBDE800810CEA131572
:100E100011EA0C1F00D00CE013EA0C1F00F0258033
:100E20004FF0000081EA030101F00041F0BCBDE891
:100E30000081F0BCBDE8004181EA030100F04CBA3A
:100E4000F0BCBDE8004170B500F0F8F9097EFC3E49
:100E500000F007B84FF0000081EA030101F0004103
:100E6000704781EA030100F037BAF0BCBDE80041E9
:100E700022494FF000007047FFFDFBF9F7F5F4F24F
:100E8000F0EEEDEBE9E8E6E4E3E1E0DEDDDBDAD825
:100E9000D7D5D4D3D1D0CFCDCCCBCAC8C7C6C5C483
:100EA000C2C1C0BFBEBDBCBBBAB9B8B7B6B5B4B39A
:100EB000B2B1B0AFAEADACABAAA9A8A8A7A6A5A485
:100EC000A3A3A2A1A09F9F9E9D9C9C9B9A99999849
:100ED0009797969595949393929191908F8F8E8EEC
:100EE0008D8C8C8B8B8A8989888887878685858479
:100EF00084838382828181800000FF070000F87F65
:100F000051EA030C17D41CF5801F58BFBCF5801F95
:100F100000F10680994218BF704708BF90427047A1
:100F200007D711F5801F58BF13F5801F19D49942B8
:100F30007047894270471CF5801F08D5BCF5801F9B
:100F4000F7D58B4218BF704708BF824270474FF4F5
:100F5000001C1CEB410F38BF1CEB430F01D28B422E
:100F6000704770B500F06AF9922449004FF00051C3
:100F70004FF08053FFF760BE4FEA1153A3F5806333
:100F8000D3F11E03A8BFD3F1200C08DB4FF00042C1
:100F900042EAC12252EA505232FA03F07047094243
:100FA0000BD4102BC4BF0020704703F5787CBCF134
:100FB000FF3F05D04FF0FF3070474FF00000704703
:100FC00070B500F03BF900BF4992248000207047C3
:100FD000F0E7B0FA80F310FA03F10AD0C3F11D0371
:100FE00003F580634FEA03524FEA415002EBD121EF
:100FF00070474FF00000704751EA030C17D41CF5FE
:10100000801F58BFBCF5801F00F10680994218BFB1
:10101000704708BF9042704707D711F5801F58BF2F
:1010200013F5801F19D499427047894270471CF507
:10103000801F08D5BCF5801FF7D58B4218BF7047BD
:1010400008BF824270474FF4001C1CEB410F38BFB1
:101050001CEB430F01D28B42704770B500F0EEF8E5
:10106000922449004FF080514FF00053FFF7E4BD48
:1010700051EA030C17D41CF5801F58BFBCF5801F24
:1010800000F10680994218BF704708BF9042704730
:1010900007D711F5801F58BF13F5801F19D4994247
:1010A0007047894270471CF5801F08D5BCF5801F2A
:1010B000F7D58B4218BF704708BF824270474FF484
:1010C000001C1CEB410F38BF1CEB430F01D28B42BD
:1010D000704770B500F0B2F8922449004FF000510B
:1010E0004FF08053FFF7A8BD70B5DFF848C11CEA88
:1010F000111E1EBF1CEA13159EEA0C0F95EA0C0F79
:1011000000F06F8081EA03044EEAD47EAE4421EA07
:101110004C1123EA4C1341F4801143F48013AEF1D7
:101120007F7EA1FB024CA0FB0365361955EB0C0535
:10113000A1FB034C4CF10003A0FB021C16EB0C06B8
:10114000654153F10003094218BF46F0010613F44C
:10115000007F0BD14FEA03314FEA053041EA1551C8
:1011600040EA165034036FF003020AE04FEAC3214D
:101170004FEAC52041EA555140EA5650F4026FF05B
:10118000020202EB2E4201EB025585EACE710AD033
:101190005FEA440C18BF24F0004450F1000041F114
:1011A000000120EAD47040F2FE7C624500D270BD9E
:1011B000A84214BF4FF080444FF04044002E08BFB7
:1011C0000024BEF1806FA8BFA1F1C041BDE870400E
:1011D00080F2828001F1C04101F000414FF0000037
:1011E00070470CEA13159EEA0C0F18BF95EA0C0F16
:1011F00006D081EA030E4FF000000EF0004170BDF2
:1012000000F01CF88900013E00F007B800F009B8B2
:101210004FEA430C5FEA5C5C08D081EA030100F00E
:101220005BB84FEA410C5FEA5C5CF6D102494FF0D3
:10123000000070470000FF070000F87F0EF1020E6B
:101240002EF0030E5EF8046B364205D4012A43EB00
:10125000030515F5001F12D8012841EB010C1CF500
:10126000001F0CD80ED14FEAD17C0CEB4C0C0CF1CA
:10127000020C15F5001F08BF4CEBD37C04E04FF0C7
:10128000080C01E04FEAD37C0CEB4C0526FA05F67E
:1012900006F00706B6F1040C06D20EEB860CBDE88C
:1012A00070404CF0010C6047DFE80CF0090B0202C3
:1012B0004FF00041A1F500214FF0000070BD19462C
:1012C0001046012851EB010418BFD4F5001484BF67
:1012D000002001F0004170BD0808A0F500114FEAA0
:1012E0003101704710B591EA030F48BF83F0004306
:1012F0003FF502AC841A71EB030C07D28CF0004C62
:10130000121943EB0C03001B61EB0C014FEA115463
:10131000A4EB135CDFF89CE11EEA430F18BF9EEAC2
:10132000445F00F0B08021EA045123EA6E03524288
:10133000C3EB6E0338BF5B1EDCF1200E25D322FA0F
:101340000CFE10EB0E0043FA0CFE41EB0E01CCF14B
:10135000200E03FA0EFE10EB0E00CCF1200E51F120
:10136000000129D401EB045112FA0EF2BDE810403D
:1013700058BF7047401C1CBFB2F1004F7047002897
:101380000CBF491C20F00100704712EB020E43EB2A
:10139000030218BF4FF0010E4EEA4202ACF1200CDE
:1013A000DCF11E0E54D943FA0CFE10EB0E00CCF10A
:1013B0001E0E51F1FF31D5D50EF1010E12FA0EFEBF
:1013C000404141EB010101EB445C5FEA5C5C10D9F8
:1013D00001EB045110EBDE7038BFBEF1004FBDE8E9
:1013E000104018BF704700280CBF491C20F00100B6
:1013F000704730D24FEAD42C24F4006411F5001168
:101400001BD0B1FA81F20B3AA41AA41ED2F1200328
:10141000914030FA03F31943904001EBCC7101EB9A
:101420000451002CBDE81040A8BF704701F1C04135
:1014300001F000414FF000007047B0FA80F310FA5D
:1014400003F100D110BDE41A173C4805C90AE4E7CE
:1014500001EB045110BD49104FEA300001EB04517B
:10146000BDE8104002E04FF0000170474A0008BF9D
:101470000042F8D0B2F5001F28BF704701F00041CC
:101480004FF0000070479EEA445F07D011EA5E0FFC
:10149000BDE8104004BF002100207047BDE81040A7
:1014A00070B5FFF7CBFE00BF40DFF63E104683F07D
:1014B000004170470000E0FF10B5FFF721FD0CBFB1
:1014C0000120002010BD10B5FFF71AFD14BF012048
:1014D000002010BD10B5FFF78FFD8CBF012000204C
:1014E00010BD10B5FFF788FD2CBF0120002010BDF6
:1014F00010B5FFF7BDFD94BF0120002010BD10B551
:10150000FFF7B6FD34BF0120002010BD2C150008E8
:10151000000000201C0000002801000848150008F9
:1015200020000020800800004401000800000000A6
:10153000000001000A0000000000000000000000A0
:0815400001000A000000000098
:040000050800018965
:00000001FF
